S01700004763634170706C69636174696F6E312E737265635B
S1130000EEC000000DC100000BC1000009C10000DA
S113001007C1000005C1000003C1000001C10000C8
S1130020FFC00000FDC00000FBC00000F9C00000DC
S1130030F7C00000F5C00000F3C00000F1C00000EC
S1130040EFC000000C946A0CEBC00000E9C0000093
S11300500C943708E5C00000E3C00000E1C00000D4
S1130060DFC00000ADC40000DBC00000D9C0000048
S1130070D7C00000D5C00000D3C00000D1C000002C
S1130080CFC00000CDC00000CBC00000C9C000003C
S11300909CC50000C5C00000C3C00000C1C0000072
S11300A0BFC00000BDC00000BBC00000B9C000005C
S11300B0B7C00000B5C00000B3C00000B1C000006C
S11300C0AFC00000ADC00000ABC00000470A490A41
S11300D04F0A4B0A550A590A5B0A4D0A510A530A38
S11300E0570A620A5D0A620A620A620A620A620ABC
S11300F0620A620A620A620A620A620A620A620A9C
S1130100620A620A620A620A620A620A620A620A8B
S1130110620A620A620A620A620A620A620A620A7B
S1130120620A620A620A620A620A620A620A620A6B
S1130130620A620A620A620A620A620A620A620A5B
S1130140620A620A620A620A620A620A620A620A4B
S1130150620A620A620A620A620A620A620A620A3B
S1130160620A620A620A620A620A620A620A620A2B
S1130170620A620A620A620A620A620A620A620A1B
S1130180620A620A620A620A620A620A620A620A0B
S1130190620A620A620A620A620A620A620A620AFB
S11301A0620A620A620A620A620A620A620A620AEB
S11301B0620A5F0A610A450F580F3E0F580F4D0F30
S11301C0360F550F420F3A0F490F510F8D0F940FF1
S11301D09B0FA20FA90FAE0FB50FBC0FC30F1124B5
S11301E01FBECFEFD1E2DEBFCDBF00E00CBF12E0F7
S11301F0A0E0B2E0E0EDFBE300E00BBF02C007903B
S11302000D92A639B107D9F725E0A6E9B2E001C0FD
S11302101D92A73EB207E1F70E94DA0D0C94E61D89
S1130220EFCE80910002909101020895809398028C
S1130230089580939A020895FC01EA56FD4F658360
S1130240089580939902089520E030E090913A0354
S1130250982311F021E030E0C90108958091390319
S113026090E00895FC01EA5CFC4F858190E00895DC
S1130270362F20E0280F391FC9010895282F30E0B8
S1130280C90108958070892F90E008950F931F93FA
S1130290CF93DF9380917E0390917F03892B09F4A0
S11302A0B8C0809198028E3F09F4A9C080910002E1
S11302B090910102892B29F410927D0386E08093AA
S11302C07C0380917D0390E060917C0370E0681B67
S11302D0790B8A5C9C4F49D390917D03980F90933E
S11302E07D0380917C03981718F44AD2019771F02A
S11302F070917D03472F50E0DA0111978A01025073
S1130300104060E0ED01CA5CDC4F18C080917D03B1
S1130310882309F071C086E090E073C0F901EA5CBB
S1130320FC4F80818F3F19F481818F3F61F020174A
S1130330310719F488818F3F31F06F5F262F30E049
S11303402A173B075CF36623A1F090E0421B530B92
S113035008C0EA5CFC4FDF01A20FB31F8C918083BD
S11303609F5FE92FF0E0E417F5079CF3761B709389
S11303707D0320917D0380917C03281728F19091BF
S11303809802809138039817B9F5609139036C5F2E
S113039060937C03261788F4822F90E070E0681B3A
S11303A0790B8A5C9C4FE1D290917D03980F9093D6
S11303B07D0380917C03981738F080913903A82F2E
S11303C0B0E020E090E00CC085E090E09093010262
S11303D0809300021EC0EA5CFC4F8281980F2F5F5D
S11303E0E22FF0E0AE17BF07B4F7AA5CBC4F9095BC
S11303F013968C91891719F087E090E002C081E090
S113040090E0909301028093000210927F03109277
S11304107E03DF91CF911F910F9108951F938091D7
S11304207E0390917F03019709F45DC081E090E021
S113043090937F0380937E0380919902893940F4DD
S113044090919A02892F8150863028F0933819F0C0
S113045084E090E02FC08FEF809396028093970200
S113046080919902A82FB0E020E090E005C0EA5600
S1130470FD4F8281980F2F5FE22FF0E0AE17BF0788
S1130480B4F7AA56BD4F909513969C9380910002A1
S1130490909101020697029708F438D110919902BD
S11304A01C5F86E992E0612F70E035D1181759F08E
S11304B082E090E0909301028093000210927F0307
S11304C010927E0310C080919A02823029F48091A8
S11304D09C0290E0069602C086E090E040D1109223
S11304E00102109200021F91089598DF809100028A
S11304F090910102892B39F4C9DE80910002909118
S113050001020597C9F30895282F80917E039091E5
S11305107F03892B91F42093980283E080939A02BD
S113052060939B02CA0140939C02807090939D0249
S113053085E080939902D9CF0895FFCF282F809129
S11305407E0390917F03892BB1F42093980282E07B
S113055080939A0260939B0280939C0284E0809330
S11305609902C3DF30913C0320E080913B03280FC4
S1130570311DC9010895FFCF282F80917E039091EA
S11305807F03892B71F42093980283E080939A026D
S113059060939B0240939C0284E080939902A5CFD0
S11305A00895FFCF282F80917E0390917F03892B9C
S11305B091F42093980282E080939A0260939B02C4
S11305C081E080939C0284E0809399028EDF809185
S11305D03B0390E00895FFCF282F80917E039091F4
S11305E07F03892B51F42093980281E080939A022F
S11305F082E08093990279CF0895FFCF86C0089551
S11306000F931F938C016F5F7F4F882777FD809531
S1130610982F0E9453189B01AC0160E074E284EFB0
S113062099E40E94B817AB01BC01C80115D0892B0D
S113063019F420E030E00CC081E090E090930102D6
S11306408093000210927F0310927E0321E030E039
S1130650C9011F910F910895EF92FF920F931F9379
S11306607A018B0182E48093C00088E98093C10001
S113067086E08093C20060E074E284EF99E4A8010C
S113068097010E94B8170E9425186150704070931A
S1130690C5006093C40060E074E284E799E4A801B3
S11306A097010E94B81720E030E040E451E40E9432
S11306B007196093D5057093D6058093D705909359
S11306C0D8052091D5053091D6054091D705509194
S11306D0D80560E070E08AE793E40E94B8170E94AE
S11306E025187093D4056093D3057298739A8FEF8D
S11306F08093C600109280041092810481E090E0FF
S11307001F910F91FF90EF900895089580918104B7
S1130710809380040895AC01F8947398729A20E051
S113072030E011C08091C00085FFFCCF8091C000F3
S113073080648093C000FA01E20FF31F80818093EC
S1130740C6002F5F3F4F2617370764F38091C00020
S113075086FFFCCF7298739A7894C9010895109219
S1130760DC051092DB052091D3053091D405265F7A
S11307703F4F280F391F3093DA052093D905089588
S1130780AF92BF92CF92DF92EF92FF920F931F939B
S11307908091DB059091DC0501969093DC058093B4
S11307A0DB052091DB053091DC058091D905909122
S11307B0DA058217930718F421E030E074C0A090A2
S11307C0D505B090D605C090D705D090D805C60100
S11307D0B5012BEA3AEA4AEA50E40E9407197B0180
S11307E08C0120E030E040E85FE30E94B4178823E6
S11307F014F461E054C0C801B70120E030E04FE7D1
S113080053E40E94031918160CF045C0C601B50143
S113081020E030E04AE754E40E94B8175B016C0121
S113082020E030E04AE755E40E9407197B018C017F
S113083020E030E040E85FE30E94B41788231CF412
S113084061E070E024C0C801B70120E03FEF4FE74A
S113085057E40E9403191816B4F4C601B50120E048
S113086030E040E251E40E9407190E94251880E913
S113087091E005C0FC013197F1F7615070406115BA
S11308807105C1F70EC0C801B7010E942518CB013C
S11308900197F1F706C0C801B7010E9425186A95AF
S11308A0F1F720E030E0C9011F910F91FF90EF9024
S11308B0DF90CF90BF90AF90089590918004809185
S11308C08104981719F420E030E017C09091800457
S11308D080918104981738F4809181049091800468
S11308E0282F30E008C08091810490918004282F43
S11308F030E020503F4F291B3109C90108951F934F
S1130900182FDBDF8F3F910591F0E0918104F0E037
S1130910E058FC4F1083809181048F3F19F41092AA
S1130920810405C0809181048F5F809381041F91AD
S113093008959091800480918104981711F4EFEF49
S113094012C0E0918004F0E0E058FC4FE081809117
S113095080048F3F19F41092800405C080918004B4
S11309608F5F809380048E2F0895EF92FF920F93F0
S11309701F93CF93DF937C01EB01909180048091CE
S11309808104981719F400E010E012C096DF8C017E
S1130990C817D9070CF48E01C0E0D0E006C0C9DF47
S11309A0F701EC0FFD1F80832196C017D107BCF31C
S11309B0C801DF91CF911F910F91FF90EF9008959F
S11309C01F920F920FB60F920BB60F9211242F9312
S11309D03F934F935F936F937F938F939F93AF93C3
S11309E0BF93EF93FF938091C60089DFFF91EF914E
S11309F0BF91AF919F918F917F916F915F914F9133
S1130A003F912F910F900BBE0F900FBE0F901F9030
S1130A101895AC0120E030E00CC08091C80085FF3F
S1130A20FCCFFA01E20FF31F80818093CE002F5F89
S1130A303F4F261737078CF30895DC019091020588
S1130A4080910305981711F480E0089590910205B0
S1130A5080910305981719F420E030E017C09091B5
S1130A60020580910305981738F48091030590914D
S1130A700205282F30E008C08091030590910205FB
S1130A80282F30E020583F4F291B3109A901621754
S1130A9073070CF4AB0120E030E020C09091020514
S1130AA080910305981711F49FEF12C0E09102059D
S1130AB0F0E0EE57FB4F9081809102058F3719F4D7
S1130AC01092020505C0809102058F5F8093020594
S1130AD0FD01E20FF31F90832F5F3F4F241735076B
S1130AE0ECF2842F089590910205809103059817E4
S1130AF019F420E030E017C09091020580910305BD
S1130B00981738F48091030590910205282F30E05E
S1130B1008C08091030590910205282F30E02058E9
S1130B203F4F291B3109C9010895482F90910205AF
S1130B30809103059817D1F09091020580910305E7
S1130B40981738F48091030590910205282F30E01E
S1130B5008C08091030590910205282F30E02058A9
S1130B603F4F291B31092F37310591F0E0910305DF
S1130B70F0E0EE57FB4F4083809103058F3719F463
S1130B80109203050895809103058F5F80930305F8
S1130B9008959091020580910305981711F4EFEFE1
S1130BA012C0E0910205F0E0EE57FB4FE081809126
S1130BB002058F3719F41092020505C080910205D1
S1130BC08F5F809302058E2F08951F920F920FB6A8
S1130BD00F920BB60F9211242F933F934F935F9371
S1130BE06F937F938F939F93AF93BF93EF93FF93F1
S1130BF08091CE009ADFFF91EF91BF91AF919F91C9
S1130C008F917F916F915F914F913F912F910F90B1
S1130C100BBE0F900FBE0F901F901895DF93CF93CC
S1130C200F920F92CDB7DEB7982F8A3099F48DE0EA
S1130C3089839A83FE0131969E012D5F3F4F8091F7
S1130C40C80085FFFCCF81918093CE00E217F307A3
S1130C50B1F706C08091C80085FFFCCF9093CE0009
S1130C6080E090E00F900F90CF91DF9108959091E4
S1130C700205809103059817D1F3909102058091A4
S1130C800305981738F48091030590910205282FE5
S1130C9030E008C08091030590910205282F30E0D0
S1130CA020583F4F291B3109232B09F3909102054A
S1130CB080910305981711F4EFEF15C0E091020538
S1130CC0F0E0EE57FB4FE081809102058F3719F475
S1130CD01092020505C0809102058F5F8093020582
S1130CE0ED3009F4EAE08E2F90E008950E94531845
S1130CF09B01AC0160E074E284EF99E40E94B817B0
S1130D000E9425186150704022E42093C80028E90D
S1130D102093C90026E02093CA002FEF2093CE0031
S1130D201092020510920305272F332727FD3A95C9
S1130D302093CD006093CC007298739A8EE096E075
S1130D4067E376E00E94711990930505809304058A
S1130D5008950F931F93CF93DF938C0165E270E0A6
S1130D6021DCEC015EDA019729F08091060590916F
S1130D70070518C064E270E0C80114DC182F51DACA
S1130D80019729F080910605909107050BC0CE01CB
S1130D9083709927982F8827810F911D90930705B9
S1130DA080930605DF91CF911F910F910895EF92E3
S1130DB0FF920F931F93CF93DF938C017A01E90184
S1130DC082D3C801C6DFE81AF90A1E141F0464F0AE
S1130DD064961AC02FEF80E792E021508040904043
S1130DE0E1F700C0000001C06497C801B2DF8C17AE
S1130DF09D0784F30EC02FEF80E792E021508040DE
S1130E009040E1F700C00000C801A3DFC817D9076C
S1130E1094F3DF91CF911F910F91FF90EF9008957C
S1130E2040E052E068EC70E087E190E04CD328EABF
S1130E3032E048EA52E064E670E08CE090E0B7DF2C
S1130E4026E430E046E450E064E670E089E190E0B6
S1130E50AEDF2CE231E04CE251E064E670E08EE07B
S1130E6090E0A5CF089540E052E068EC70E087E19F
S1130E7090E029D328EA32E048EA52E064E670E0E0
S1130E808CE090E094DF26E430E046E450E064E651
S1130E9070E089E190E08BDF2CE231E04CE251E03C
S1130EA064E670E08EE090E082CF089522E033E0C3
S1130EB042E053E068EC70E087E190E078DF28E6F8
S1130EC031E048E651E066E970E08EE090E06FDFE3
S1130ED028E730E048E750E066E970E089E190E017
S1130EE066DF24EF31E044EF51E066E970E08CE026
S1130EF090E05DCF089520E032E040E052E068ECFD
S1130F0070E087E190E053DF2AEF30E04AEF50E0F1
S1130F1064E670E089E190E04ADF44EF51E064E682
S1130F2070E08CE090E0CFD248EA52E064E670E0F2
S1130F308EE090E0C8D224EF31E044EF51E064E663
S1130F4070E089E190E033DF2CEB32E04CEB52E0CF
S1130F5064E670E08EE090E02ADF4CEB52E064E659
S1130F6070E089E190E0AFD22AE931E04AE951E04A
S1130F7064E670E08CE090E01ADF2FEF89E698E1F8
S1130F80215080409040E1F700C000002CE632E0A0
S1130F904CE652E068EC70E087E190E008DF2FEF68
S1130FA08DE292E2215080409040E1F700C00000C1
S1130FB048E151E064E670E089E190E084D224E401
S1130FC032E044E452E068E270E08CE090E0EFDE6E
S1130FD040E052E068EC70E087E190E074D240E9D0
S1130FE051E064E670E08EE090E06DD246E752E0B6
S1130FF064E670E08CE090E066D228E730E048E7F1
S113100050E064E670E089E190E0D1DE2CCF0895F1
S1131010109208051092090510920A0510920B050A
S1131020F8941092800082E08093810081E08093A4
S11310306F00789408956091080570910905809176
S11310400A0590910B0508958FB7F89410928500C6
S1131050109284008FBF1092080510920905109217
S11310600A0510920B0508951092810008951F92AD
S11310700F920FB60F9211248F939F93AF93BF9348
S11310808091080590910905A0910A05B0910B057E
S11310908096A11DB11D8093080590930905A09326
S11310A00A05B0930B05BF91AF919F918F910F905B
S11310B00FBE0F901F90189561E070E080E090E003
S11310C09FDA41E050E068E170E080E290E01CDAF1
S11310D041E050E068E170E081E290E015DA41E03F
S11310E050E06FE270E080E290E00EDA41E050E020
S11310F06FE270E081E290E007DA40E050E060E205
S113110070E08EEF90E000DA2FEF89E698E121504D
S113111080409040E1F700C0000080E590E09093AB
S1131120240580932305089581E090E08DD80197EC
S113113061F488E092E09F938F930E94BB1981E150
S113114092E00E94CE190F900F9082E090E07CD83C
S1131150019761F488E092E09F938F930E94BB19FA
S113116086E292E00E94CE190F900F9084E090E006
S11311706BD8019761F488E092E09F938F930E946B
S1131180BB1989E392E00E94CE190F900F9088E07A
S113119090E05AD8019761F488E092E09F938F938E
S11311A00E94BB1989E492E00E94CE190F900F901F
S11311B080E190E049D8019761F488E092E09F9340
S11311C08F930E94BB198DE592E00E94CE190F9077
S11311D00F9080E290E038D8019761F488E092E0C3
S11311E09F938F930E94BB198DE692E00E94CE19C3
S11311F00F900F9080E490E027D8019761F488E085
S113120092E09F938F930E94BB198DE792E00E9416
S1131210CE190F900F900895AB0160E270E074D97D
S113122000D8019709F480CF089560E074E080E26B
S113123090E0F2DF60E070E081E290E0EDCF0895AD
S1131240CF93DF93EB01BC0181E290E0E5DFBE01C7
S113125080E290E0E1DFDF91CF9108958091230552
S1131260909124058338910514F082E890E0BC0144
S11312707C5FE6CF089568E774E088E790E0E0CF0C
S1131280089562E374E082E390E0DACF089564E6BF
S113129070E084E694E0D4CF0895CF93DF93609117
S11312A02305709124056338710514F062E870E039
S11312B0EB01DC5F072E000C880B990B0E9453187E
S11312C026E636E646E65FE30E9407190E942018E8
S11312D0DC01CB01BE01B4DFDF91CF910895CF9340
S11312E0DF93C0912305D0912405C338D10514F0B0
S11312F0C2E8D0E0BE010D2E000C880B990B0E94B1
S1131300531826E636E646E65FE30E9407190E9474
S113131020187C5FCE0194DFDF91CF9108958091F6
S11313202305909124058338910514F082E890E018
S1131330BC017C5F0F9784CF089580912305909121
S113134024058338910514F082E890E0BC017C5FA9
S11313504E9776CF08958091230590912405833884
S1131360910514F082E890E0BC017C5FCC9768CFD3
S1131370089580912305909124058338910514F0F4
S113138082E890E0BC016F507C4F5ACF0895809161
S11313902305909124058338910514F082E890E0A8
S11313A0BC016E517C4F4CCF0895809123059091E0
S11313B024058338910514F082E890E0BC016C5355
S11313C07C4F3ECF089562E374E082E394E038CF2B
S11313D0089562E370E082E390E032CF089522E35F
S11313E0AC01249FC001259F900D112464E670E098
S11313F00E94C316CB019C5FBC0122CF089522E357
S1131400AC01249FC001259F900D112464E670E077
S11314100E94C316CB0114CF089520912305309167
S113142024052338310514F022E830E0F901FC5F8B
S113143044E1429FC001439F900D112464E670E093
S11314400E94C316CB01BF01FBCE08952091230552
S1131450309124052338310514F022E830E044E1CA
S1131460429FC001439F900D112464E670E00E94E6
S1131470C3167C5FC901E4CE08958537910510F544
S1131480FC018827EA59FF4F8F4F0C941417E6CEBE
S1131490089503CF089523CF089541CF08954DCFE4
S11314A0089559CF089565CF089571CF08957DCFDC
S11314B0089589CF08958DCF0895DDCE0895ADCFD9
S11314C00895C4CF08950F931F93CF93DF93EC0136
S11314D08B016EE170E018D8A80160E270E0CE01E3
S11314E013D80E941101019709F41EDEDF91CF91F8
S11314F01F910F9108951F93CF93DF9367E270E0DC
S113150080E290E04FD8EC010E941101019729F08C
S113151080911405909115051AC066E270E080E28E
S113152090E040D8182F0E941101019729F0809172
S11315301405909115050BC0CE0187709927982F3B
S11315408827810F911D9093150580931405DF91D1
S1131550CF911F9108950F931F93CF93DF93EC01C5
S113156064DE8E011C5FC7DF99231CF0C817D907FE
S113157074F4811524E092071CF0081719073CF451
S11315808FE99FE00197F1F700C00000ECCFDF91F5
S1131590CF911F910F9108951F93CF93DF9367E22B
S11315A070E081E290E00E94D202EC010E941101FD
S11315B0019729F080911205909113051BC066E2F2
S11315C070E081E290E00E94D202182F0E94110183
S11315D0019729F080911205909113050BC0CE015B
S11315E087709927982F8827810F911D9093130551
S11315F080931205DF91CF911F9108957CDF9C01A8
S11316003B7F232B11F09450089580E090E00895DF
S1131610C3DF9C013B7F232B41F09C012150310906
S11316202F3F334020F09450089580E090E00895D7
S1131630EF92FF920F931F93CF93DF93EC018B01F3
S11316407A016AE170E084E690E00E94D20290930D
S11316501105809310050E941101019781F5809175
S1131660100590911105998388836BE170E084E6FD
S113167090E00E94D20290930F0580930E050E9481
S113168011010197E1F480910E0590910F05F80185
S1131690918380836CE170E084E690E00E94D20242
S11316A090930D0580930C050E941101019739F464
S11316B080910C0590910D05F70191838083DF9152
S11316C0CF911F910F91FF90EF90089581E0809347
S11316D0160510921D0510921E0510921F051092FA
S11316E02005089510921605089560911D057091C6
S11316F01E0580911F059091200508954F925F92D9
S11317006F927F928F929F92AF92BF92CF92DF920D
S1131710EF92FF92CF93DF9380911605882309F40B
S11317208CC06CDFEC0174DF8C0F9D1F99230CF4CB
S11317300196EC01D595C7957EDC4B015C01809147
S1131740170590911805A0911905B0911A05750116
S11317506401C81AD90AEA0AFB0A89F080911B05B8
S113176090911C05BE01681B790B072E000C880B99
S1131770990BA70196010E94D616F90102C0E0E078
S1131780F0E0A7019601C701B6010E94B4169B01BF
S1131790AC01DF010E9426172B013C0199232CF494
S11317A02FEF421A520A620A720A75946794579488
S11317B04794A0911B05B0911C05A70196010E94B6
S11317C02617640D751D861D971D28EE33E040E035
S11317D050E00E94F816CA01B9010E9453182DEC7A
S11317E03CEC4CEC5EE30E9407196B017C016091B8
S11317F01D0570911E0580911F05909120050E9482
S113180053189B01AC01C701B6010E9450170E94F6
S1131810201860931D0570931E0580931F059093F7
S11318202005D0931C05C0931B0580921705909248
S11318301805A0921905B0921A05DF91CF91FF9077
S1131840EF90DF90CF90BF90AF909F908F907F905C
S11318506F905F904F9008958FEF81B912B810BACE
S113186081BB81E080937C00EAE7F0E080818062C4
S113187080838081866080838081806880830895EE
S113188080937C00EAE7F0E080818061808380813E
S113189080648083808184FFFDCF80917800909163
S11318A0790008950F931F93CF93DF938C010E5FFC
S11318B01F4FC1E0D0E0CE01E3DFF80181939193A3
S11318C08F012196C730D105B1F7DF91CF911F91D8
S11318D00F9108951F920F920FB60F9211240BB619
S11318E00F922F933F934F935F936F937F938F93B5
S11318F09F93AF93BF93EF93FF9389E295E0D2DF79
S1131900FF91EF91BF91AF919F918F917F916F91D3
S11319105F914F913F912F910F900BBE0F900FBE8F
S11319200F901F90189560E071EE80E090E0DED992
S1131930789408950F931F93CF93DF9300D000D032
S1131940CDB7DEB71A8219821C821B821E821D82C9
S113195000E010E0AE014B5F5F4FBE016D5F7F4F53
S1131960CE01019665DEC80138D60F5F1F4F8B810B
S11319709C81853B910574F358DC2FEF89E698E14F
S1131980215080409040E1F700C000008FDA79DCFC
S11319902FEF86E191E1215080409040E1F700C0B3
S11319A0000043DC2FEF83ED90E321508040904012
S11319B0E1F700C000009FDA33D737DC2FEF81EE68
S11319C094E0215080409040E1F700C0000026964A
S11319D00FB6F894DEBF0FBECDBFDF91CF911F913C
S11319E00F91089522DC2FEF89E698E12150804081
S11319F09040E1F700C0000059DA43DC2FEF86E1A4
S1131A0091E1215080409040E1F700C000000DDCDE
S1131A102FEF83ED90E3215080409040E1F700C028
S1131A20000069DA02DC2FEF81EE94E0215080405F
S1131A309040E1F700C000000895A2D3E0D314D48D
S1131A4048D47CD477DFAFD4E3D417D551D5CADFDB
S1131A506AD634D633D681C5089582E190E079D927
S1131A6046E252E060E070E082E190E02CCD08951F
S1131A702FEF33ED80E3215030408040E1F700C088
S1131A80000040E651E06EE170E082E190E01BDD91
S1131A909FEF23E234EF80E09150204030408040BB
S1131AA0D9F700C0000040E052E064E670E082E153
S1131AB090E009DD9FEF2BE732E991502040304060
S1131AC0E1F700C000000895B0DB2FEF83ED90E351
S1131AD0215080409040E1F700C0000068E270E0CF
S1131AE080E290E099DB67E274E081E290E094DBCD
S1131AF02FEF89E698E1215080409040E1F700C043
S1131B00000093DB8FE39CE90197F1F700C000002C
S1131B106BE470E080E290E07FDB6BE470E081E2F4
S1131B2090E07ADB9FEF27E98AE3915020408040E0
S1131B30E1F700C0000079DB8FE39CE90197F1F73E
S1131B4000C0000048E552E064E670E08CE090E0FC
S1131B50BADC9FEF23ED80E3915020408040E1F711
S1131B6000C0000085DF9FEF29E688E19150204006
S1131B708040E1F700C0000067E274E080E290E09A
S1131B804BDB68E270E081E290E046DB9FEF29E600
S1131B9088E1915020408040E1F700C0000045CB2F
S1131BA0089580E78AB981E18BB908958FE787B9F1
S1131BB088B90895F6DFFADF4FDE94D2F6D01ED04E
S1131BC07BDAB1DE4ADF2CD987D237DF7DDF2DDB2C
S1131BD080E090E008959C012150310926303105C0
S1131BE060F448B121E030E0B90102C0660F771F0C
S1131BF08A95E2F7CB01842788B90895E7E3F5E0F5
S1131C00118210828AE090E09383828344E050E062
S1131C10558344839783868389E090E09187808706
S1131C2026E030E0338722879587848737872687A5
S1131C3067E070E0718B608B8FEF9FEF938B828BEB
S1131C40958B848B978B868B118E108E938F828FBE
S1131C50558F448F378F268F42E050E051A340A325
S1131C6093A382A395A384A397A386A391A780A7F4
S1131C7093A782A795A784A797A786A771AB60AB04
S1131C8093AB82AB95AB84AB97AB86AB51AF40AF14
S1131C9093AF82AF15AE14AE37AF26AF48E050E035
S1131CA0509378054093770590937A05809379054E
S1131CB090937C0580937B0590937E0580937D05AE
S1131CC09093800580937F0590938205809381058E
S1131CD0909384058093830590938605809385056E
S1131CE025E030E0309388052093870590938A059A
S1131CF08093890590938C0580938B0590938E0532
S1131D0080938D059093900580938F059093920511
S1131D1080939105909394058093930590939605F1
S1131D2080939505509398054093970590939A0551
S1131D308093990590939C0580939B0590939E05B1
S1131D4080939D059093A00580939F059093A20591
S1131D508093A1059093A4058093A3059093A60571
S1131D608093A5053093A8052093A7059093AA0511
S1131D708093A9059093AC058093AB059093AE0531
S1131D808093AD053093B0052093AF059093B205D1
S1131D908093B1053093B4052093B3058CE090E0B3
S1131DA09093B6058093B50508958EE0E5ECF5E0D3
S1131DB0DF011D928A95E9F71092B8051092B705D4
S1131DC01092BA051092B90586E0EFEBF5E0DF0159
S1131DD01D928A95E9F708952F923F924F925F9250
S1131DE06F927F928F929F92AF92BF92CF92DF9227
S1131DF0EF92FF920F931F93CF93DF93CDB7DEB78C
S1131E0064970FB6F894DEBF0FBECDBFFE013196C6
S1131E1084E1DF011D928A95E9F749805A806B803D
S1131E207C808D809E800F811885A984BA84CB84A0
S1131E30DC84ED84FE842F84388869897A894B890F
S1131E405C89AFEBB5E025EC35E0ED91FD91EE0F4B
S1131E50FF1FE95CFA4F0190F081E02DEB30F105B2
S1131E6038F58827E552FF4F8F4FDEC78FEF481AAA
S1131E70580A20C08FEF681A780A1CC08FEF881A9E
S1131E80980A18C00F5F1F4F15C08FEFA81AB80A21
S1131E9011C08FEFC81AD80A0DC08FEFE81AF80ADC
S1131EA009C08FEF281A380A05C06F5F7F4F02C040
S1131EB04F5F5F4FA217B30741F6BA86A986DC8647
S1131EC0CB86FE86ED8618870F837A8B698B5C8BB5
S1131ED04B8B9E828D827C826B825A824982388AA5
S1131EE02F86DE01119680E090E04FEF5FEFE0E097
S1131EF0F0E02D913D914217530714F4A901FC0120
S1131F0001968A309105A9F7E930F10508F042C03D
S1131F108827EA51FF4F8F4F87C785E090E0909361
S1131F202205809321053CC088E090E0909322052F
S1131F308093210535C082E090E090932205809340
S1131F4021052EC087E090E090932205809321051F
S1131F5027C0109222051092210522C089E090E04A
S1131F6090932205809321051BC084E090E0909318
S1131F7022058093210514C08AE090E09093220505
S1131F80809321050DC086E090E090932205809314
S1131F90210506C08FEF9FEF9093220580932105C2
S1131FA0809121059091220564960FB6F894DEBFC6
S1131FB00FBECDBFDF91CF911F910F91FF90EF9096
S1131FC0DF90CF90BF90AF909F908F907F906F9055
S1131FD05F904F903F902F9008958091B905909114
S1131FE0BA05019663E070E0CED69093BA0580936B
S1131FF0B90585EC95E056DC1092B8051092B7054A
S11320008091CF059091D005833C914030F481E0DC
S113201090E09093B8058093B7058091CB0590919B
S1132020CC05853B910548F48091B7059091B8059E
S113203082609093B8058093B7058091D105909103
S1132040D205853B910548F48091B7059091B80578
S113205084609093B8058093B7058091C7059091EB
S1132060C805853B910548F48091B7059091B80562
S113207088609093B8058093B7058091CD059091C1
S1132080CE05853B910548F48091B7059091B8053C
S113209080619093B8058093B7058091C9059091AC
S11320A0CA05833C914048F48091B7059091B805E6
S11320B080629093B8058093B705E091B905F091DB
S11320C0BA05EE0FFF1FE154FA4F8091B7059091C6
S11320D0B80591838083089580DF8091B70590913E
S11320E0B80508951092BC051092BB051092BE0568
S11320F01092BD0508950F931F93CF93DF93EC01C6
S11321008B016BDF69DE9093BC058093BB05019660
S113211039F48FE39FE10197F1F700C000002BC071
S11321208881998166E070E02ED6892B59F48091DC
S1132130230590912405029690932405809323050A
S113214019821882F80180819181209123053091B0
S113215024058217930724F4909324058093230580
S11321608091BB059091BC0588D98FE99FE00197C8
S1132170F1F700C00000DF91CF911F910F910895F6
S1132180CF93DF9300D01F92CDB7DEB71A821982A6
S113219082E890E09C838B8361D82FEF81EE94E0FA
S11321A0215080409040E1F700C000008091BB05C1
S11321B09091BC05059789F0BE016D5F7F4FCE01FC
S11321C0019699DF89819A8101969A838983809106
S11321D0BB059091BC05059779F7BAD49093BC05DB
S11321E08093BB0580E590E09093240580932305BC
S11321F00F900F900F900F90DF91CF910895CF9390
S1132200DF9300D01F92CDB7DEB71A82198282E81D
S113221090E09C838B838091BB059091BC050597CE
S113222089F0BE016D5F7F4FCE01019664DF898125
S11322309A8101969A8389838091BB059091BC050C
S1132240059779F785D49093BC058093BB0580E509
S113225090E090932405809323050F900F900F90A6
S11322600F90DF91CF910895CF93DF9300D01F9209
S1132270CDB7DEB71A82198282E890E09C838B8303
S11322808091BB059091BC05059789F0BE016D5FF7
S11322907F4FCE0101962FDF89819A8101969A831F
S11322A089838091BB059091BC05059779F750D43B
S11322B09093BC058093BB0580E590E09093240542
S11322C0809323050F900F900F900F90DF91CF9183
S11322D00895CF93DF9300D01F92CDB7DEB71A8253
S11322E0198282E890E09C838B838091BB05909156
S11322F0BC05069789F0BE016D5F7F4FCE01019644
S1132300FADE89819A8101969A8389838091BB053B
S11323109091BC05069779F79FD49093BC05809360
S1132320BB0580E590E090932405809323050F90EE
S11323300F900F900F90DF91CF910895CF93DF937B
S113234000D01F92CDB7DEB71A82198282E890E0DE
S11323509C838B838091BB059091BC05069789F083
S1132360BE016D5F7F4FCE010196C5DE89819A81E2
S113237001969A8389838091BB059091BC05069749
S113238079F76AD49093BC058093BB0580E590E00F
S113239090932405809323050F900F900F900F9036
S11323A0DF91CF910895CF93DF9300D01F92CDB7E3
S11323B0DEB71A82198282E890E09C838B83809135
S11323C0BB059091BC05059789F0BE016D5F7F4FF9
S11323D0CE01019690DE89819A8101969A83898340
S11323E08091BB059091BC05059779F7B1D3909383
S11323F0BC058093BB0580E590E090932405809311
S113240023050F900F900F900F90DF91CF910895B7
S1132410CF93DF9300D01F92CDB7DEB71A82198213
S11324208AE590E09C838B838091BB059091BC05E9
S1132430059789F0BE016D5F7F4FCE0101965BDE8B
S113244089819A8101969A8389838091BB059091B1
S1132450BC05059779F77CD39093BC058093BB05A5
S113246080E590E090932405809323050F900F90CE
S11324700F900F90DF91CF910895CF93DF9300D009
S11324801F92CDB7DEB71A82198282E890E09C834E
S11324908B838091BB059091BC05069789F0BE01A2
S11324A06D5F7F4FCE01019626DE89819A81019668
S11324B09A8389838091BB059091BC05069779F72F
S11324C08AE090E048D881E090E085DB6EDC1092F1
S11324D0BC051092BB0580E590E0909324058093A1
S11324E023050F900F900F900F90DF91CF910895D7
S11324F00F931F93CF93DF930E942E092FEF83EC4A
S113250099E0215080409040E1F700C00000CEEBFC
S1132510D2E000E010E00E942E09DEDD892B29F0D4
S11325200F5F1F4F033011054CF4219739F08FE9E9
S11325309FE00197F1F700C00000EDCF8AE090E042
S11325400AD80E94150931DC1092BC051092BB0513
S1132550DF91CF911F910F910895CF93DF9300D016
S11325601F92CDB7DEB71A82198282E890E09C836D
S11325708B831092BC051092BB0580E590E090938C
S11325802405809323050E940808A0D80CC0B6D85F
S1132590BE016D5F7F4FCE010196ADDD89819A81C9
S11325A001969A838983A1D86E36710581059105B8
S11325B074F398D88FE39CE90197F1F700C0000009
S11325C00E9424080E9434080E9415090F900F905D
S11325D00F900F90DF91CF910895CF93DF93EC018B
S11325E082E390E0909324058093230575DDCD2B41
S11325F059F59C01277F2032310561F09C012F7D24
S11326002031310539F09C012F7E2830310511F03D
S1132610C89759F481E090E09093BE058093BD057E
S113262083E790E00E943D0A08C01092BE05109214
S1132630BD0584E790E00E943D0A8FE39CE9019781
S1132640F1F700C0000037C02091BD053091BE05F0
S113265021153105A9F48031910539F09C012F7EB3
S11326602830310511F04C9701F581E090E090930A
S1132670BE058093BD0583E790E00E943D0A15C026
S11326801216130694F49C012B7F2230310529F095
S11326908430910511F00E9741F41092BE0510920A
S11326A0BD0584E790E00E943D0A8FE39CE9019711
S11326B0F1F700C00000DF91CF910895CF93DF932D
S11326C000D01F92CDB7DEB71A82198282E890E05B
S11326D09C838B838091BB059091BC05069789F000
S11326E0BE016D5F7F4FCE01019605DD89819A8120
S11326F001969A8389838091BB059091BC050697C6
S113270079F7AAD29093BC058093BB0580E590E04D
S113271090932405809323050F900F900F900F90B2
S1132720DF91CF91089582E390E090932405809304
S113273023050E944709D0DCEFE9FFE03197F1F768
S113274000C00000892BA9F70E944709FFEF25EA82
S11327508EE0F15020408040E1F700C0000084E6A4
S113276090E090932405809323050E944709B4DCEC
S1132770EFE9FFE03197F1F700C00000892BA9F3DE
S11327808AE090E00E94AB0A10922405109223057F
S113279063D21092BC051092BB0580E590E0909343
S11327A024058093230508950F931F93CF93DF93FC
S11327B0EC010E9415098E011C5F0E947B0A99237B
S11327C01CF0C817D9073CF4811524E09207ACF338
S11327D00817190794F385E090E0DF91CF911F91DA
S11327E00F9108950F931F93CF93DF93EC010E94F1
S11327F015098E011C5F0E947B0A99231CF0C817DF
S1132800D9073CF4811524E09207ACF308171907A3
S113281094F386E090E0DF91CF911F910F9108959A
S11328200E94E90959DC8032910551F42FEF85EAC1
S11328309EE0215080409040E1F700C000000BC0B2
S1132840409781F72FEF89E698E12150804090402E
S1132850E1F700C0000040DC8E30910569F08C3156
S1132860910551F09C01277F2430310529F09C010A
S11328702F7E2830310561F482E090E0ACD98AE003
S113288090E00E94AB0A28DC82309105B1F407C0C5
S1132890019709F782E390E00E94FF09DCCF82E010
S11328A090E00E943D0A2FEF80E792E021508040A3
S11328B09040E1F700C0000008958831910571F45B
S11328C087E090E00E943D0A2FEF80E792E02150DC
S11328D080409040E1F700C00000089588309105E1
S11328E071F480E090E00E943D0A2FEF80E792E0CF
S11328F0215080409040E1F700C0000008958C30E2
S1132900910571F480E090E00E943D0A2FEF80E78A
S113291092E0215080409040E1F700C0000008950B
S11329208430910571F480E090E00E943D0A2FEF1D
S113293080E792E0215080409040E1F700C0000021
S11329400895069771F489E090E00E943D0A2FEF04
S113295080E792E0215080409040E1F700C0000001
S1132960089582E390E00E94FF09B6DB823091056E
S113297071F484E090E00E943D0A2FEF80E792E03A
S1132980215080409040E1F700C000000895863057
S1132990910571F489E090E00E943D0A2FEF80E7F1
S11329A092E0215080409040E1F700C0000008957B
S11329B08430910571F480E090E00E943D0A2FEF8D
S11329C080E792E0215080409040E1F700C0000091
S11329D008958C30910571F480E090E00E943D0AE6
S11329E02FEF80E792E0215080409040E1F700C053
S11329F0000008958830910571F480E090E00E9411
S1132A003D0A2FEF80E792E0215080409040E1F7AB
S1132A1000C0000008958831910571F487E090E0CA
S1132A200E943D0A2FEF80E792E0215080409040C1
S1132A30E1F700C000000895409709F096CF82E0C6
S1132A4090E00E943D0A2FEF80E792E02150804001
S1132A509040E1F700C00000089580912305909113
S1132A6024058E32910564F40E943B092FEF8DEB0F
S1132A709AE0215080409040E1F700C0000065C01A
S1132A808135910564F40E943B092FEF83EC99E0B2
S1132A90215080409040E1F700C0000056C08536C8
S1132AA0910564F40E943B092FEF8CE498E02150D7
S1132AB080409040E1F700C0000047C0893791058D
S1132AC064F40E943B092FEF85ED96E0215080408D
S1132AD09040E1F700C0000038C08D38910564F4DF
S1132AE00E943B092FEF88E596E0215080409040FA
S1132AF0E1F700C0000029C0813A910564F40E9406
S1132B003B092FEF8EE595E0215080409040E1F79E
S1132B1000C000001AC0853B910564F40E943B0983
S1132B202FEF81EE94E0215080409040E1F700C007
S1132B3000000BC00E943B092FEF87EE93E0215069
S1132B4080409040E1F700C000000C9415090895FE
S1132B508AE090E029DE81E090E03DD87EDF0E94AB
S1132B60E309BADA8C31910581F08E30910569F070
S1132B708830910551F09C01277F2430310529F0DC
S1132B809C012B7F2230310561F482E090E023D850
S1132B908AE090E00E94AB0A9FDA8031910541F40B
S1132BA040C08097F1F682E390E00E94EF09D9CF0C
S1132BB088319105C9F188309105C9F18C319105AD
S1132BC0C9F18C309105C9F18E309105C9F1843079
S1132BD09105C9F186309105C9F10297D1F183E0DD
S1132BE090E00E94EB0D82E390E00E94FF0974DA0A
S1132BF09C018830910521F0877F8430910539F458
S1132C008AE090E00E94AB0A80E090E00895803171
S1132C10910509F12F7E2032310549F780E190E0DA
S1132C20089580E190E0089588E190E0089588E0B7
S1132C3090E008958CE190E008958CE090E0089590
S1132C408EE090E0089584E090E0089586E090E0BE
S1132C50089582E090E008958AE090E0C3DD81E089
S1132C6090E00E94EB0DF9DE0E94E90935DA8C311F
S1132C70910581F08E30910569F09C01277F243005
S1132C80310541F09C012F7E2830310519F0803147
S1132C90910569F482E090E00E94EB0D8AE090E0F7
S1132CA00E94AB0A19DA8230910541F43FC00197C2
S1132CB0E9F682E390E00E94FF09D8CF86309105BF
S1132CC0C1F184309105C1F18E309105C1F18C3090
S1132CD09105C1F18C319105C1F188309105C1F1A3
S1132CE088319105C1F14097C9F183E090E00E94D9
S1132CF0EB0D82E390E00E94EF09EED98830910554
S1132D0029F09C01277F2430310539F48AE090E0D2
S1132D100E94AB0A80E090E008958630910509F1A5
S1132D200197039750F782E090E0089582E090E0E5
S1132D30089586E090E0089584E090E008958EE0A0
S1132D4090E008958CE090E008958CE190E008957F
S1132D5088E090E0089588E190E0089580E190E0B3
S1132D60089582E090E00895DB018F939F9364D0EF
S1132D70BF91AF91A29F800D911DA39F900DB29F13
S1132D80900D1124089597FB072E16F4009406D095
S1132D9077FD08D061D007FC05D03EF4909581956D
S1132DA09F4F0895709561957F4F0895A1E21A2E63
S1132DB0AA1BBB1BFD010DC0AA1FBB1FEE1FFF1FDB
S1132DC0A217B307E407F50720F0A21BB30BE40B2B
S1132DD0F50B661F771F881F991F1A9469F7609572
S1132DE07095809590959B01AC01BD01CF0108952C
S1132DF0052E97FB16F400940FD057FD05D0D6DFAF
S1132E0007FC02D046F408C05095409530952195B2
S1132E103F4F4F4F5F4F0895909580957095619502
S1132E207F4F8F4F9F4F0895EE0FFF1F881F8BBF5B
S1132E300790F691E02D199423D0A59F900DB49F8F
S1132E40900DA49F800D911D11240895B7FFF4CF18
S1132E50F3DF821B930B0895AA1BBB1B51E107C030
S1132E60AA1FBB1FA617B70710F0A61BB70B881F16
S1132E70991F5A95A9F780959095BC01CD010895A5
S1132E80A29FB001B39FC001A39F700D811D1124A7
S1132E90911DB29F700D811D1124911D08955058EC
S1132EA0BB27AA270ED075C166D130F06BD120F0B4
S1132EB031F49F3F11F41EF45BC10EF4E095E7FB7F
S1132EC051C1E92F77D180F3BA17620773078407DA
S1132ED0950718F071F49EF58FC10EF4E0950B2E52
S1132EE0BA2FA02D0B01B90190010C01CA01A00158
S1132EF01124FF27591B99F0593F50F4503E68F1B3
S1132F001A16F040A22F232F342F4427585FF3CFF3
S1132F10469537952795A795F0405395C9F77EF4C4
S1132F201F16BA0B620B730B840BBAF09150A1F00D
S1132F30FF0FBB1F661F771F881FC2F70EC0BA0F93
S1132F40621F731F841F48F4879577956795B7951B
S1132F50F7959E3F08F0B3CF9395880F08F0992713
S1132F60EE0F979587950895D9D008F481E00895D8
S1132F700CD00FC107D140F0FED030F021F45F3FF8
S1132F8019F0F0C0511139C1F3C014D198F3992349
S1132F90C9F35523B1F3951B550BBB27AA27621719
S1132FA07307840738F09F5F5F4F220F331F441F5E
S1132FB0AA1FA9F333D00E2E3AF0E0E830D0915096
S1132FC05040E695001CCAF729D0FE2F27D0660F83
S1132FD0771F881FBB1F261737074807AB07B0E8C2
S1132FE009F0BB0B802DBF01FF2793585F4F2AF0D8
S1132FF09E3F510568F0B6C000C15F3FECF3983EB8
S1133000DCF3869577956795B795F7959F5FC9F734
S1133010880F911D9695879597F90895E1E0660FBD
S1133020771F881FBB1F621773078407BA0720F036
S1133030621B730B840BBA0BEE1F88F7E09508959F
S113304004D06894B111D9C00895BCD088F09F57BA
S113305090F0B92F9927B751A0F0D1F0660F771FE0
S1133060881F991F1AF0BA95C9F712C0B13081F0C0
S1133070C3D0B1E00895C0C0672F782F8827B85F08
S113308039F0B93FCCF3869577956795B395D9F721
S11330903EF490958095709561957F4F8F4F9F4F2B
S11330A00895E89409C097FB3EF490958095709537
S11330B061957F4F8F4F9F4F9923A9F0F92F96E980
S11330C0BB279395F695879577956795B795F111F5
S11330D0F8CFFAF4BB0F11F460FF1BC06F5F7F4F92
S11330E08F4F9F4F16C0882311F096E911C07723A4
S11330F021F09EE8872F762F05C0662371F096E8AD
S1133100862F70E060E02AF09A95660F771F881F7B
S1133110DAF7880F9695879597F90895990F00081F
S1133120550FAA0BE0E8FEEF16161706E807F90795
S1133130C0F012161306E407F50798F0621B730B30
S1133140840B950B39F40A2661F0232B242B252BB1
S113315021F408950A2609F4A140A6958FEF811D54
S1133160811D089597F99F6780E870E060E00895F5
S11331709FEF80EC089500240A941616170618068B
S11331800906089500240A94121613061406050667
S11331900895092E0394000C11F4882352F0BB0FF8
S11331A040F4BF2B11F460FF04C06F5F7F4F8F4F5B
S11331B09F4F089557FD9058440F551F59F05F3F96
S11331C071F04795880F97FB991F61F09F3F79F045
S11331D087950895121613061406551FF2CF4695C7
S11331E0F1DF08C0161617061806991FF1CF869549
S11331F07105610508940895E894BB27662777272D
S1133200CB0197F908958ADF08F48FEF08950BD066
S1133210C0CFB1DF28F0B6DF18F0952309F0A2CFB4
S1133220A7CF1124EACFC6DFA0F3959FD1F3950F62
S113323050E0551F629FF001729FBB27F00DB11D36
S1133240639FAA27F00DB11DAA1F649F6627B00DC6
S1133250A11D661F829F2227B00DA11D621F739FAF
S1133260B00DA11D621F839FA00D611D221F749FBD
S11332703327A00D611D231F849F600D211D822F04
S1133280762F6A2F11249F5750408AF0E1F088234B
S11332904AF0EE0FFF1FBB1F661F771F881F915058
S11332A05040A9F79E3F510570F05CCFA6CF5F3F19
S11332B0ECF3983EDCF3869577956795B795F7958B
S11332C0E7959F5FC1F7FE2B880F911D9695879513
S11332D097F90895DC0101C06D9341505040E0F727
S11332E008950F931F93CF93DF93009731F46115E3
S11332F0710519F480E090E039C08B01EC016EE0B7
S113330070E081E090E077D2FC01892B99F380E8AA
S113331083830115110571F01387028781E8838384
S11333208091DD059091DE05892B21F4F093DE0573
S1133330E093DD052097C9F0D187C087838182603F
S113334083838091DF059091E005892B71F4F093DC
S1133350E005E093DF058091E1059091E205892B7A
S113336021F4F093E205E093E105CF01DF91CF91E1
S11333701F910F910895CF93DF93CDB7DEB7AE01C0
S11333804A5F5F4FFA0161917191AF018091DF054E
S11333909091E00533D0DF91CF9108950F931F935F
S11333A0CF93DF93E091DF05F091E005238121FFC6
S11333B01BC08C01D0E0C0E0F80181918F016091C5
S11333C0DF057091E005DB011896ED91FC911997EA
S11333D0882331F01995892B79F3DFEFCFEFECCF08
S11333E08AE01995892B19F08FEF9FEF02C08D2F7A
S11333F09C2FDF91CF911F910F9108952F923F92AF
S11334004F925F926F927F928F929F92AF92BF92F0
S1133410CF92DF92EF92FF920F931F93CF93DF939C
S1133420CDB7DEB72B970FB6F894DEBF0FBECDBF76
S11334306C017B018A01FC0117821682838181FF62
S1133440BFC1CE0101963C01F6019381F70193FDC2
S1133450859193FF81917F01882309F4ADC1853261
S113346039F493FD859193FF81917F01853221F495
S1133470B60190E011D3E8CF912C212C312CFFE13F
S1133480F315D8F08B3279F038F4803279F0833246
S1133490A1F4232D20611DC08D3261F0803369F4C5
S11334A0232D216016C0832D8260382EE32DE46025
S11334B03E2E2AC0F32DF8601DC037FC2DC020ED30
S11334C0280F2A3040F08E32B9F436FC75C1232D12
S11334D02064322E19C036FE06C08AE0989E200D64
S11334E01124922E11C0EAE02E9E200D1124222ECA
S11334F0F32DF0623F2E08C08C3621F4832D8068B2
S1133500382E02C0883641F4F70193FD859193FF6C
S113351081917F018111B3CF982F9F7D9554933072
S113352028F40C5F1F4F9FE399830DC0833631F05D
S1133530833771F0833509F055C020C0F8018081CC
S113354089830E5F1F4F88248394912C530112C0EA
S11335502801F2E04F0E511CF801A080B18036FE24
S113356003C0692D70E002C06FEF7FEFC50189D2FF
S11335704C018201F32DFF773F2E15C0280122E074
S1133580420E511CF801A080B18036FE03C0692DA3
S113359070E002C06FEF7FEFC50168D24C01F32DDC
S11335A0F0683F2E820133FC19C0822D90E088160A
S11335B09906A0F4B60180E290E06ED22A94F5CF89
S11335C0F50137FC859137FE81915F01B60190E0EA
S11335D063D221102A9421E0821A91088114910463
S11335E079F7E1C0843611F0893639F5F80137FEF0
S11335F007C060817181828193810C5F1F4F08C075
S113360060817181072E000C880B990B0E5F1F4F90
S1133610F32DFF763F2E97FF09C090958095709506
S113362061957F4F8F4F9F4FF0683F2E2AE030E027
S1133630A3016ED2882E861844C0853731F4232D19
S11336402F7EB22E2AE030E025C0932D997FB92E2B
S11336508F36C1F018F4883579F0AEC0803719F090
S1133660883721F0A9C0E92FE061BE2EB4FE0DC059
S1133670FB2DF460BF2E09C034FE0AC0292F26603A
S1133680B22E06C028E030E005C020E130E002C0E0
S113369020E132E0F801B7FE07C0608171818281C8
S11336A093810C5F1F4F06C06081718180E090E0C0
S11336B00E5F1F4FA3012CD2882E8618FB2DFF7797
S11336C03F2E36FE0DC0232D2E7FA22E891458F4D2
S11336D034FE0BC032FC09C0832D8E7EA82E05C09B
S11336E0B82CA32C03C0B82C01C0B92CA4FE0FC065
S11336F0FE01E80DF11D8081803321F49A2D997E1D
S1133700A92E09C0A2FE06C0B394B39404C08A2DA6
S1133710867809F0B394A3FC10C0A0FE06C0B214CE
S113372080F4280C922C9B180DC0B21458F4B601E6
S113373080E290E0B1D1B394F8CFB21418F42B180E
S113374002C0982C212CA4FE0FC0B60180E390E0A7
S1133750A3D1A2FE16C0A1FC03C088E790E002C07A
S113376088E590E0B6010CC08A2D867851F0A1FE60
S113377002C08BE201C080E2A7FC8DE2B60190E0BA
S11337808BD1891430F4B60180E390E085D19A940A
S1133790F8CF8A94F301E80DF11D8081B60190E021
S11337A07BD18110F6CF222009F44ECEB60180E2FF
S11337B090E072D12A94F7CFF6018681978102C0F6
S11337C08FEF9FEF2B960FB6F894DEBF0FBECDBFE1
S11337D0DF91CF911F910F91FF90EF90DF90CF90E9
S11337E0BF90AF909F908F907F906F905F904F901D
S11337F03F902F9008950F931F93CF93DF93869F4D
S11338008001879F100D969F100D1124C8010DD0C3
S1133810EC01009721F0A80160E070E05BDDCE01CF
S1133820DF91CF911F910F9108950F931F93CF9321
S1133830DF938230910510F482E090E0E091E50599
S1133840F091E60520E030E0A0E0B0E0309719F117
S1133850408151810281138148175907C8F08417A8
S1133860950769F4109731F012960C9312971396FA
S11338701C9327C00093E5051093E60522C021158B
S1133880310519F04217530718F49A01BD01EF01ED
S1133890DF01F801DBCF21153105F9F0281B390BC5
S11338A02430310580F48A819B816115710521F0F2
S11338B0FB019383828304C09093E6058093E5051E
S11338C0FE01329644C0FE01E20FF31F81939193EF
S11338D022503109398328833AC02091E30530917D
S11338E0E405232B41F42091040230910502309326
S11338F0E4052093E305209102023091030221158F
S1133900310541F42DB73EB74091060250910702AC
S1133910241B350BE091E305F091E405E217F3076E
S1133920A0F42E1B3F0B2817390778F0AC014E5F2B
S11339305F4F2417350748F04E0F5F1F5093E4057F
S11339404093E3058193919302C0E0E0F0E0CF015E
S1133950DF91CF911F910F910895CF93DF9300973B
S113396009F481C0FC01329713821282A091E5050B
S1133970B091E605109781F420813181820F931F65
S11339802091E3053091E4052817390751F5F093A8
S1133990E405E093E30567C0ED0120E030E0CE17D5
S11339A0DF0740F44A815B819E0141155105F1F026
S11339B0EA01F5CFD383C28340815181840F951FDF
S11339C0C817D90759F488819981840F951F0296E5
S11339D0918380838A819B8193838283211531051E
S11339E029F4F093E605E093E5053DC0E901FB8386
S11339F0EA8349915991C40FD51FEC17FD0761F46F
S1133A0080819181840F951F0296E90199838883AF
S1133A10828193819B838A83E0E0F0E012968D910A
S1133A209C911397009719F0FD01DC01F7CF8D915C
S1133A309C9111979D012E5F3F4F820F931F209100
S1133A40E3053091E4052817390769F4309729F420
S1133A501092E6051092E50502C013821282B0931B
S1133A60E405A093E305DF91CF910895FC0105904F
S1133A70615070400110D8F7809590958E0F9F1F6C
S1133A800895FC016150704001900110D8F78095B1
S1133A9090958E0F9F1F08950F931F93CF93DF93DD
S1133AA0FB01238121FD03C08FEF9FEF2CC022FF78
S1133AB016C046815781248135814217530744F447
S1133AC0A081B1819D012F5F3F4F318320838C936F
S1133AD0268137812F5F3F4F3783268314C08B01A4
S1133AE0EC01FB010084F185E02D1995892BE1F6A9
S1133AF0D80116968D919C911797019617969C93D1
S1133B008E931697CE01DF91CF911F910F91089557
S1133B10FA01AA27283051F1203181F1E8946F93FA
S1133B206E7F6E5F7F4F8F4F9F4FAF4FB1E03ED0A0
S1133B30B4E03CD0670F781F891F9A1FA11D680F3E
S1133B40791F8A1F911DA11D6A0F711D811D911D71
S1133B50A11D20D009F468943F912AE0269F1124E6
S1133B603019305D3193DEF6CF010895462F47704A
S1133B70405D4193B3E00FD0C9F7F6CF462F4F70A5
S1133B80405D4A3318F0495D31FD4052419302D003
S1133B90A9F7EACFB4E0A6959795879577956795A9
S1133BA0BA95C9F700976105710508959B01AC01A9
S1133BB00A2E06945795479537952795BA95C9F7D0
S1133BC0620F731F841F951FA01D0895F894FFCFE3
S1133BD001000000E70520005B4552524F525D2072
S1133BE000496E70757420766F6C7461676520652A
S1133BF072726F722100416E676C65206C696D6929
S1133C0074206572726F7221004F76657268656107
S1133C1074206572726F7221004F7574206F662074
S1133C2072616E6765206572726F72210043686508
S1133C30636B73756D206572726F7221004F7665C8
S1133C40726C6F6164206572726F722100496E73C9
S1133C507472756374696F6E20636F646520657236
S1093C60726F72210000E6
S9030000FC
